:100000000C9428010C9459010C9459010C94590139
:100010000C9459010C9459010C9459010C945901F8
:100020000C9459010C9459010C9459010C945901E8
:100030000C9459010C9459010C9459010C945901D8
:100040000C9459010C9459010C9459010C945901C8
:100050000C9459010C9459010C9459010C946F049F
:100060000C9459010C94E3040C94B9040C945901B8
:100070000C9459010C9459010C9459010C94590198
:100080000C9459010C9459010C9459010C94590188
:100090000C9459010C9459010C9459010C94590178
:1000A0000C9459010C9459010C9459010C94590168
:1000B0000C9459010C9459010C9459010C94590158
:1000C0000C9459010C9459010C9459010C94590148
:1000D0000C9459010C9459010C9459010C94590138
:1000E0000C9459010C94E8010C9456020C9485036D
:1000F0000C94DA010C94E0010C9406020C94EE01CD
:100100000C94E4010C94F2010C9433020C94380327
:100110000C94AF010C94D0010C9400020C9477065F
:100120000C9442020C94FC010C94CD010C94D60169
:100130000C94F6010C94AA010C9400030C94C901D0
:100140000C94C1010C94C50100000A0B02090C0DAE
:100150000E0807030401000000000000000000007A
:10016000000000000000000000000000000000008F
:10017000000000001211100000000000000000004C
:10018000000000000000000000000000000000006F
:100190002200250028002B002E003100340002012F
:1001A0000000050108010B010000210024002700C8
:1001B0002A002D0030003300010100000401070176
:1001C0000A010505050507050808080802020202DC
:1001D0000A0A0808040404040101010101010101E3
:1001E0000303030303030303040707070C0C0C0CAE
:1001F0000C0C0C0C02020202060606060606060697
:100200000B0B0B0B0B0B0B0B010210202008081023
:100210002040102040800201020108040201010276
:10022000040810204080804020100804020180044F
:1002300002018040201008040201080402010102AA
:100240000408102040800102040810204080770636
:1002500011241FBECFEFD1E2DEBFCDBF00E00CBF47
:1002600023E0A2EDB2E001C01D92A837B207E1F78A
:1002700012E0A0E0B2E0E4EDFDE000E00BBF02C060
:1002800007900D92A23DB107D9F711E0C8E2D1E085
:1002900000E006C021970109802FFE010E94E006C0
:1002A000C732D10780E00807A9F70E9419050C940E
:1002B000E8060C94000090E0FC01E85FFD4F2491FB
:1002C0008E539E4FFC018491882399F090E0880F13
:1002D000991FFC01E855FE4FA591B491FC01E2572E
:1002E000FE4F859194918FB7F894EC91E22BEC93AB
:1002F0008FBF0895282F30E0F901E85BFE4F9491FD
:10030000F901E85FFD4F44912E533E4FF9012491CE
:10031000222309F435C0992311F191509231F8F458
:10032000E92FF0E08827E856FE4F8F4F0C94E00647
:10033000C901CD01AA01C101C501AF01D001D6019A
:10034000DA01E001E401E801EE01F201AF01F6019A
:10035000FC010002809180008F7780938000E22F63
:10036000F0E0EE0FFF1FE257FE4FA591B4918FB75B
:10037000F894EC91611148C040954E234C938FBF87
:100380000895809180008F7DE8CF80918000877FE5
:10039000E4CF84B58F7784BDE2CF84B58F7DFBCF6A
:1003A0008091B0008F778093B000D9CF8091B0005A
:1003B0008F7DF9CF809190008F7780939000CFCF81
:1003C000809190008F7DF9CF80919000877FF5CF4D
:1003D0008091A0008F778093A000C1CF8091A00072
:1003E0008F7DF9CF8091A000877FF5CF809120018C
:1003F0008F7780932001B3CF809120018F7DF9CF3B
:1004000080912001877FF5CF4E2BB8CFAF92BF925E
:10041000CF92DF92EF92FF920F931F93CF93DF93D0
:100420006C017B018B01040F151FEB015E01AE18FF
:10043000BF08C017D10759F06991D601ED91FC9121
:100440000190F081E02DC6011995892B79F7C5013E
:10045000DF91CF911F910F91FF90EF90DF90CF90A0
:10046000BF90AF900895FC01538D448D252F30E04F
:10047000842F90E0821B930B541710F0CF960895B1
:1004800001970895FC01918D828D981761F0A28DDE
:10049000AE0FBF2FB11D5D968C91928D9F5F9F73A4
:1004A000928F90E008958FEF9FEF0895FC01918D5A
:1004B000828D981731F0828DE80FF11D858D90E0C7
:1004C00008958FEF9FEF08952FB7F8948091D7028A
:1004D0009091D802A091D902B091DA022FBF8093F7
:1004E000E3029093E402A093E502B093E6028BED61
:1004F00092E00E94560297FF26C02FB7F894809191
:10050000D7029091D802A091D902B091DA022FBF00
:100510004091E3025091E4026091E5027091E6029D
:10052000841B950BA60BB70B4091DF025091E002A4
:100530006091E1027091E20284179507A607B70760
:10054000B0F28FEF9FEF0895CF92DF92EF92FF927C
:10055000CF930E946402FC0197FD4EC08D3291053D
:1005600021F0C0970A9708F040C0C12CD12C760129
:10057000C0E0E130F105D1F0ED32F105D9F1CF0164
:10058000C0970A9798F4AAE0B0E0A70196010E94EC
:10059000A4066F01FF0FEE08FF08C60ED71EE81E67
:1005A000F91E80E3C81AD108E108F1088BED92E04A
:1005B0000E9442020E946402FC01C0970A97C8F29E
:1005C000E130F105B1F2CC2341F0F094E094D09405
:1005D000C094C11CD11CE11CF11CC701B601CF9114
:1005E000FF90EF90DF90CF9008958BED92E00E9406
:1005F0004202AFCFC1E0DACFC12CD12C7601EDCFD2
:10060000FC01918D228D892F90E0805C9F4F821B91
:1006100091098F73992708958BED92E00E94000352
:1006200021E0892B09F420E0822F0895FC01A48D9C
:10063000A80FB92FB11DA35ABF4F2C91848D90E004
:1006400001968F739927848FA689B7892C93A089E7
:10065000B1898C91837080648C93938D848D981371
:1006600006C00288F389E02D80818F7D8083089504
:10067000EF92FF920F931F93CF93DF93EC0181E0F2
:10068000888F9B8D8C8D98131AC0E889F989808199
:1006900085FF15C09FB7F894EE89FF896083E889CC
:1006A000F98980818370806480839FBF81E090E0BE
:1006B000DF91CF911F910F91FF90EF900895F62E4B
:1006C0000B8D10E00F5F1F4F0F731127E02E8C8DE5
:1006D0008E110CC00FB607FCFACFE889F98980812A
:1006E00085FFF5CFCE010E941603F1CFEB8DEC0F05
:1006F000FD2FF11DE35AFF4FF0829FB7F8940B8F47
:10070000EA89FB8980818062CFCFCF93DF93EC01B0
:10071000888D8823B9F0AA89BB89E889F9898C91E9
:1007200085FD03C0808186FD0DC00FB607FCF7CFA5
:100730008C9185FFF2CF808185FFEDCFCE010E94A5
:100740001603E9CFDF91CF91089580E090E0892BE7
:1007500029F00E940C0381110E94000080E090E0CB
:10076000892B49F080E090E0892B29F00E9400005D
:1007700081110E94000080E090E0892B49F080E028
:1007800090E0892B29F00E94000081110E94000056
:1007900080E090E0892B49F080E090E0892B29F0FF
:1007A0000E94000081110C9400000895FC0101904A
:1007B0000020E9F73197AF01481B590BBC018BEDC5
:1007C00092E00C9406028F929F92AF92BF920F9389
:1007D0001F93CF93DF93CDB7DEB7A1970FB6F894F1
:1007E000DEBF0FBECDBF19A2423008F44AE08E0131
:1007F0000F5D1F4F842E912CB12CA12CA5019401CB
:100800000E94BE06E62FB901CA01EA30F4F4E05DA9
:10081000D801EE938D01232B242B252B79F790E023
:1008200080E0109719F0CD010E94D603A1960FB673
:10083000F894DEBF0FBECDBFDF91CF911F910F9116
:10084000BF90AF909F908F900895E95CE1CFCF92D9
:10085000DF92EF92FF92CF93DF936C01990FEE0836
:10086000FF086A30710511F54AE0F7FE20C06DE21D
:100870008BED92E00E943803EC0166277727CB01CD
:100880006C197D098E099F094AE00E94E303C80F95
:10089000D91F8EE192E00E94D6038C0F9D1FDF913D
:1008A000CF91FF90EF90DF90CF900895462FC70132
:1008B000B6010E94E303EC01ECCFCF93DF93D0E0CD
:1008C000C0E0009719F00E94D603EC018EE192E09F
:1008D0000E94D6038C0F9D1FDF91CF9108951F9228
:1008E0000F920FB60F9211242F933F938F939F93E4
:1008F000AF93BF938091D7029091D802A091D90273
:10090000B091DA023091D60223E0230F2D3758F54B
:100910000196A11DB11D2093D6028093D70290931A
:10092000D802A093D902B093DA028091D2029091BA
:10093000D302A091D402B091D5020196A11DB11DA0
:100940008093D2029093D302A093D402B093D502A5
:10095000BF91AF919F918F913F912F910F900FBEBB
:100960000F901F90189526E8230F0296A11DB11D28
:10097000D2CF1F920F920FB60F9211240BB60F9287
:100980002F933F934F935F936F937F938F939F9397
:10099000AF93BF93EF93FF938BED92E00E9416030A
:1009A000FF91EF91BF91AF919F918F917F916F9147
:1009B0005F914F913F912F910F900BBE0F900FBE03
:1009C0000F901F9018951F920F920FB60F9211243F
:1009D0000BB60F922F938F939F93EF93FF93E0911A
:1009E000EB02F091EC028081E091F102F091F202D1
:1009F00082FD1DC090818091F4028F5F8F732091E2
:100A0000F502821741F0E091F402F0E0E552FD4F6B
:100A1000958F8093F402FF91EF919F918F912F9189
:100A20000F900BBE0F900FBE0F901F9018958081F6
:100A3000F2CF789484B5826084BD84B5816084BD32
:100A400085B5826085BD85B5816085BD80916E006C
:100A5000816080936E00109281008091810082609D
:100A600080938100809181008160809381008091DA
:100A700080008160809380008091B10084608093C9
:100A8000B1008091B00081608093B00080919100AE
:100A900082608093910080919100816080939100A9
:100AA000809190008160809390008091A10082608D
:100AB0008093A1008091A10081608093A10080912A
:100AC000A00081608093A0008091210182608093CA
:100AD0002101809121018160809321018091200179
:100AE00081608093200180917A00846080937A00F5
:100AF00080917A00826080937A0080917A00816090
:100B000080937A0080917A00806880937A001092B6
:100B1000C100E091EB02F091EC0282E08083E09171
:100B2000E702F091E8021082E091E902F091EA0216
:100B30008FEC80831092F302E091EF02F091F002CB
:100B400086E08083E091ED02F091EE028081806189
:100B50008083E091ED02F091EE02808188608083D5
:100B6000E091ED02F091EE02808180688083E09157
:100B7000ED02F091EE0280818F7D80838CE00E94F7
:100B80005B018DE00E945B0188E00E945B0189E0CF
:100B90000E945B018AE00E945B018BE00E945B0186
:100BA00082E00E945B0183E00E945B0184E00E947E
:100BB0005B0185E00E945B0186E00E945B0187E0AB
:100BC0000E945B0183E592E00E945D048BED92E060
:100BD0000E94000302970CF443C00E94A4024B0140
:100BE000EB010E94A4026B018B01C130D10521F5FC
:100BF00022E1A22E22E0B22ED0E0C0E0F5018081F9
:100C0000F2E0AF0EB11CB8010C2E02C075956795CD
:100C10000A94E2F7617077270E947A012196C63024
:100C2000D10561F787E792E00E94D60362E070E0A9
:100C3000C6010E94270414C0C230D105A1F461E0AE
:100C40000130110509F060E08CE00E947A018DE22C
:100C500092E00130110511F481E292E00E945D04FE
:100C60000E94A503B3CFC330D10581F461E0013008
:100C7000110509F060E08DE00E947A0186E492E0BF
:100C80000130110559F78AE392E0E8CFC430D1056D
:100C9000A1F46170772788E00E947A01B60175950A
:100CA00067956170772789E00E947A0189E892E070
:100CB0000E94D6036AE070E0BBCF259781F4617093
:100CC00077278AE00E947A01B60175956795617071
:100CD00077278BE00E947A0182EA92E0E9CF8BEBE2
:100CE00092E00E94D6036AE070E0C401A2CFEBED6F
:100CF000F2E01382128288EE93E0A0E0B0E08483F9
:100D00009583A683B78384E092E09183808385EC0A
:100D100090E09587848784EC90E09787868780ECC5
:100D200090E0918B808B81EC90E0938B828B82ECB6
:100D300090E0958B848B86EC90E0978B868B118E60
:100D4000128E138E148E08950E94AF06A59F900DEB
:100D5000B49F900DA49F800D911D11240895A29F12
:100D6000B001B39FC001A39F700D811D1124911D7F
:100D7000B29F700D811D1124911D0895A1E21A2EBC
:100D8000AA1BBB1BFD010DC0AA1FBB1FEE1FFF1F2F
:100D9000A217B307E407F50720F0A21BB30BE40B7F
:100DA000F50B661F771F881F991F1A9469F76095C6
:100DB0007095809590959B01AC01BD01CF01089580
:100DC000EE0FFF1F881F8BBF0790F691E02D19943F
:040DD000F894FFCFC5
:100DD40000000000380306023302850300034202C8
:100DE40056020200030004000500060007000D0A75
:100DF40000546F67676C652031204F4E00546F6755
:100E0400676C652031204F464600546F67676C65F8
:100E14002032204F4E00546F67676C652032204F9C
:100E240046460041726475696E6F2072656164792B
:100E340020746F2072656365697665207061636BE9
:100E44006574732E2E2E004269746D61736B20617C
:100E540070706C6965643A2000526164696F204760
:100E6400726F75702041202D3E204F7074696F6E33
:100E74002000526164696F2047726F7570204220B0
:100E84002D3E204F7074696F6E2000556E6B6E6F2F
:100E9400776E20436F6D706F6E656E742049443AAF
:020EA40020002C
:00000001FF
